{
  "_format": "hh-sol-artifact-1",
  "contractName": "ProofOfWork",
  "sourceName": "contracts/ProofOfWork.sol",
  "abi": [
    {
      "inputs": [
        {
          "internalType": "uint256",
          "name": "_initialDifficulty",
          "type": "uint256"
        }
      ],
      "stateMutability": "nonpayable",
      "type": "constructor"
    },
    {
      "anonymous": false,
      "inputs": [
        {
          "indexed": false,
          "internalType": "uint256",
          "name": "oldDifficulty",
          "type": "uint256"
        },
        {
          "indexed": false,
          "internalType": "uint256",
          "name": "newDifficulty",
          "type": "uint256"
        }
      ],
      "name": "DifficultyChanged",
      "type": "event"
    },
    {
      "anonymous": false,
      "inputs": [
        {
          "indexed": true,
          "internalType": "address",
          "name": "to",
          "type": "address"
        },
        {
          "indexed": false,
          "internalType": "uint256",
          "name": "amount",
          "type": "uint256"
        }
      ],
      "name": "EmergencyWithdrawal",
      "type": "event"
    },
    {
      "anonymous": false,
      "inputs": [
        {
          "indexed": true,
          "internalType": "address",
          "name": "previousOwner",
          "type": "address"
        },
        {
          "indexed": true,
          "internalType": "address",
          "name": "newOwner",
          "type": "address"
        }
      ],
      "name": "OwnershipTransferred",
      "type": "event"
    },
    {
      "anonymous": false,
      "inputs": [
        {
          "indexed": false,
          "internalType": "uint256",
          "name": "oldAmount",
          "type": "uint256"
        },
        {
          "indexed": false,
          "internalType": "uint256",
          "name": "newAmount",
          "type": "uint256"
        }
      ],
      "name": "RewardAmountChanged",
      "type": "event"
    },
    {
      "anonymous": false,
      "inputs": [
        {
          "indexed": true,
          "internalType": "address",
          "name": "miner",
          "type": "address"
        },
        {
          "indexed": false,
          "internalType": "uint256",
          "name": "nonce",
          "type": "uint256"
        },
        {
          "indexed": false,
          "internalType": "bytes32",
          "name": "hash",
          "type": "bytes32"
        },
        {
          "indexed": false,
          "internalType": "uint256",
          "name": "reward",
          "type": "uint256"
        }
      ],
      "name": "WorkSubmitted",
      "type": "event"
    },
    {
      "inputs": [],
      "name": "difficulty",
      "outputs": [
        {
          "internalType": "uint256",
          "name": "",
          "type": "uint256"
        }
      ],
      "stateMutability": "view",
      "type": "function"
    },
    {
      "inputs": [
        {
          "internalType": "address payable",
          "name": "_to",
          "type": "address"
        },
        {
          "internalType": "uint256",
          "name": "_amount",
          "type": "uint256"
        }
      ],
      "name": "emergencyWithdraw",
      "outputs": [],
      "stateMutability": "nonpayable",
      "type": "function"
    },
    {
      "inputs": [],
      "name": "lastHash",
      "outputs": [
        {
          "internalType": "bytes32",
          "name": "",
          "type": "bytes32"
        }
      ],
      "stateMutability": "view",
      "type": "function"
    },
    {
      "inputs": [],
      "name": "owner",
      "outputs": [
        {
          "internalType": "address",
          "name": "",
          "type": "address"
        }
      ],
      "stateMutability": "view",
      "type": "function"
    },
    {
      "inputs": [],
      "name": "renounceOwnership",
      "outputs": [],
      "stateMutability": "nonpayable",
      "type": "function"
    },
    {
      "inputs": [],
      "name": "rewardAmount",
      "outputs": [
        {
          "internalType": "uint256",
          "name": "",
          "type": "uint256"
        }
      ],
      "stateMutability": "view",
      "type": "function"
    },
    {
      "inputs": [
        {
          "internalType": "uint256",
          "name": "_newDifficulty",
          "type": "uint256"
        }
      ],
      "name": "setDifficulty",
      "outputs": [],
      "stateMutability": "nonpayable",
      "type": "function"
    },
    {
      "inputs": [
        {
          "internalType": "uint256",
          "name": "_newReward",
          "type": "uint256"
        }
      ],
      "name": "setRewardAmount",
      "outputs": [],
      "stateMutability": "nonpayable",
      "type": "function"
    },
    {
      "inputs": [
        {
          "internalType": "uint256",
          "name": "_nonce",
          "type": "uint256"
        }
      ],
      "name": "submitWork",
      "outputs": [],
      "stateMutability": "nonpayable",
      "type": "function"
    },
    {
      "inputs": [
        {
          "internalType": "address",
          "name": "newOwner",
          "type": "address"
        }
      ],
      "name": "transferOwnership",
      "outputs": [],
      "stateMutability": "nonpayable",
      "type": "function"
    },
    {
      "stateMutability": "payable",
      "type": "receive"
    }
  ],
  "bytecode": "0x60806040526601c6bf526340006004553480156200001c57600080fd5b50604051620015e7380380620015e7833981810160405281019062000042919062000251565b6200006262000056620000b260201b60201c565b620000ba60201b60201c565b600180819055506200007a816200017e60201b60201c565b42336040516020016200008f9291906200032c565b60405160208183030381529060405280519060200120600381905550506200041d565b600033905090565b60008060009054906101000a900473ffffffffffffffffffffffffffffffffffffffff169050816000806101000a81548173ffffffffffffffffffffffffffffffffffffffff021916908373ffffffffffffffffffffffffffffffffffffffff1602179055508173ffffffffffffffffffffffffffffffffffffffff168173ffffffffffffffffffffffffffffffffffffffff167f8be0079c531659141344cd1fd0a4f28419497f9722a3daafe3b4186f6b6457e060405160405180910390a35050565b60008111620001c4576040517f08c379a0000000000000000000000000000000000000000000000000000000008152600401620001bb90620003bd565b60405180910390fd5b60006002549050816002819055507f935ed35c9eb4d93874341d9aaea64ec36e6fa70b445537b90abbcdc6e3e9bb87818360405162000205929190620003f0565b60405180910390a15050565b600080fd5b6000819050919050565b6200022b8162000216565b81146200023757600080fd5b50565b6000815190506200024b8162000220565b92915050565b6000602082840312156200026a576200026962000211565b5b60006200027a848285016200023a565b91505092915050565b6000819050919050565b620002a26200029c8262000216565b62000283565b82525050565b600073ffffffffffffffffffffffffffffffffffffffff82169050919050565b6000620002d582620002a8565b9050919050565b60008160601b9050919050565b6000620002f682620002dc565b9050919050565b60006200030a82620002e9565b9050919050565b620003266200032082620002c8565b620002fd565b82525050565b60006200033a82856200028d565b6020820191506200034c828462000311565b6014820191508190509392505050565b600082825260208201905092915050565b7f50726f6f664f66576f726b3a20646966666963756c7479203e20300000000000600082015250565b6000620003a5601b836200035c565b9150620003b2826200036d565b602082019050919050565b60006020820190508181036000830152620003d88162000396565b9050919050565b620003ea8162000216565b82525050565b6000604082019050620004076000830185620003df565b620004166020830184620003df565b9392505050565b6111ba806200042d6000396000f3fe6080604052600436106100955760003560e01c806395ccea671161005957806395ccea6714610162578063a8a65a781461018b578063c4c11523146101b4578063f2fde38b146101dd578063f7b2a7be146102065761009c565b806319cae462146100a15780633fa21806146100cc578063602512e1146100f7578063715018a6146101205780638da5cb5b146101375761009c565b3661009c57005b600080fd5b3480156100ad57600080fd5b506100b6610231565b6040516100c39190610942565b60405180910390f35b3480156100d857600080fd5b506100e1610237565b6040516100ee9190610976565b60405180910390f35b34801561010357600080fd5b5061011e600480360381019061011991906109c2565b61023d565b005b34801561012c57600080fd5b50610135610251565b005b34801561014357600080fd5b5061014c610265565b6040516101599190610a30565b60405180910390f35b34801561016e57600080fd5b5061018960048036038101906101849190610a89565b61028e565b005b34801561019757600080fd5b506101b260048036038101906101ad91906109c2565b610364565b005b3480156101c057600080fd5b506101db60048036038101906101d691906109c2565b6103fa565b005b3480156101e957600080fd5b5061020460048036038101906101ff9190610af5565b61057c565b005b34801561021257600080fd5b5061021b6105ff565b6040516102289190610942565b60405180910390f35b60025481565b60035481565b610245610605565b61024e81610683565b50565b610259610605565b6102636000610711565b565b60008060009054906101000a900473ffffffffffffffffffffffffffffffffffffffff16905090565b610296610605565b61029e6107d5565b478111156102e1576040517f08c379a00000000000000000000000000000000000000000000000000000000081526004016102d890610b7f565b60405180910390fd5b61030a818373ffffffffffffffffffffffffffffffffffffffff1661082490919063ffffffff16565b8173ffffffffffffffffffffffffffffffffffffffff167f23d6711a1d031134a36921253c75aa59e967d38e369ac625992824315e204f20826040516103509190610942565b60405180910390a2610360610918565b5050565b61036c610605565b600081116103af576040517f08c379a00000000000000000000000000000000000000000000000000000000081526004016103a690610beb565b60405180910390fd5b60006004549050816004819055507f5a7d14d91aaf9c1a8d8fcf54ce19770fabcdb14252f7dfb227f3b4a053f0acc281836040516103ee929190610c0b565b60405180910390a15050565b6104026107d5565b6000600354338360405160200161041b93929190610cbe565b6040516020818303038152906040528051906020012090506002547fffffffffffffffffffffffffffffffffffffffffffffffffffffffffffffffff6104619190610d2a565b8160001c106104a5576040517f08c379a000000000000000000000000000000000000000000000000000000000815260040161049c90610da7565b60405180910390fd5b806003819055506004544710156104f1576040517f08c379a00000000000000000000000000000000000000000000000000000000081526004016104e890610e13565b60405180910390fd5b61051c6004543373ffffffffffffffffffffffffffffffffffffffff1661082490919063ffffffff16565b3373ffffffffffffffffffffffffffffffffffffffff167fa90153cb375da51ff34cfc56c16a50daa67a237793b4a7e977880d26d8b21945838360045460405161056893929190610e33565b60405180910390a250610579610918565b50565b610584610605565b600073ffffffffffffffffffffffffffffffffffffffff168173ffffffffffffffffffffffffffffffffffffffff16036105f3576040517f08c379a00000000000000000000000000000000000000000000000000000000081526004016105ea90610edc565b60405180910390fd5b6105fc81610711565b50565b60045481565b61060d610921565b73ffffffffffffffffffffffffffffffffffffffff1661062b610265565b73ffffffffffffffffffffffffffffffffffffffff1614610681576040517f08c379a000000000000000000000000000000000000000000000000000000000815260040161067890610f48565b60405180910390fd5b565b600081116106c6576040517f08c379a00000000000000000000000000000000000000000000000000000000081526004016106bd90610fb4565b60405180910390fd5b60006002549050816002819055507f935ed35c9eb4d93874341d9aaea64ec36e6fa70b445537b90abbcdc6e3e9bb878183604051610705929190610c0b565b60405180910390a15050565b60008060009054906101000a900473ffffffffffffffffffffffffffffffffffffffff169050816000806101000a81548173ffffffffffffffffffffffffffffffffffffffff021916908373ffffffffffffffffffffffffffffffffffffffff1602179055508173ffffffffffffffffffffffffffffffffffffffff168173ffffffffffffffffffffffffffffffffffffffff167f8be0079c531659141344cd1fd0a4f28419497f9722a3daafe3b4186f6b6457e060405160405180910390a35050565b60026001540361081a576040517f08c379a000000000000000000000000000000000000000000000000000000000815260040161081190611020565b60405180910390fd5b6002600181905550565b80471015610867576040517f08c379a000000000000000000000000000000000000000000000000000000000815260040161085e9061108c565b60405180910390fd5b60008273ffffffffffffffffffffffffffffffffffffffff168260405161088d906110dd565b60006040518083038185875af1925050503d80600081146108ca576040519150601f19603f3d011682016040523d82523d6000602084013e6108cf565b606091505b5050905080610913576040517f08c379a000000000000000000000000000000000000000000000000000000000815260040161090a90611164565b60405180910390fd5b505050565b60018081905550565b600033905090565b6000819050919050565b61093c81610929565b82525050565b60006020820190506109576000830184610933565b92915050565b6000819050919050565b6109708161095d565b82525050565b600060208201905061098b6000830184610967565b92915050565b600080fd5b61099f81610929565b81146109aa57600080fd5b50565b6000813590506109bc81610996565b92915050565b6000602082840312156109d8576109d7610991565b5b60006109e6848285016109ad565b91505092915050565b600073ffffffffffffffffffffffffffffffffffffffff82169050919050565b6000610a1a826109ef565b9050919050565b610a2a81610a0f565b82525050565b6000602082019050610a456000830184610a21565b92915050565b6000610a56826109ef565b9050919050565b610a6681610a4b565b8114610a7157600080fd5b50565b600081359050610a8381610a5d565b92915050565b60008060408385031215610aa057610a9f610991565b5b6000610aae85828601610a74565b9250506020610abf858286016109ad565b9150509250929050565b610ad281610a0f565b8114610add57600080fd5b50565b600081359050610aef81610ac9565b92915050565b600060208284031215610b0b57610b0a610991565b5b6000610b1984828501610ae0565b91505092915050565b600082825260208201905092915050565b7f50726f6f664f66576f726b3a20657863656564732062616c616e636500000000600082015250565b6000610b69601c83610b22565b9150610b7482610b33565b602082019050919050565b60006020820190508181036000830152610b9881610b5c565b9050919050565b7f50726f6f664f66576f726b3a20726577617264206d757374206265203e203000600082015250565b6000610bd5601f83610b22565b9150610be082610b9f565b602082019050919050565b60006020820190508181036000830152610c0481610bc8565b9050919050565b6000604082019050610c206000830185610933565b610c2d6020830184610933565b9392505050565b6000819050919050565b610c4f610c4a8261095d565b610c34565b82525050565b60008160601b9050919050565b6000610c6d82610c55565b9050919050565b6000610c7f82610c62565b9050919050565b610c97610c9282610a0f565b610c74565b82525050565b6000819050919050565b610cb8610cb382610929565b610c9d565b82525050565b6000610cca8286610c3e565b602082019150610cda8285610c86565b601482019150610cea8284610ca7565b602082019150819050949350505050565b7f4e487b7100000000000000000000000000000000000000000000000000000000600052601260045260246000fd5b6000610d3582610929565b9150610d4083610929565b925082610d5057610d4f610cfb565b5b828204905092915050565b7f50726f6f664f66576f726b3a20696e76616c6964206e6f6e6365000000000000600082015250565b6000610d91601a83610b22565b9150610d9c82610d5b565b602082019050919050565b60006020820190508181036000830152610dc081610d84565b9050919050565b7f50726f6f664f66576f726b3a20696e73756666696369656e742066756e647300600082015250565b6000610dfd601f83610b22565b9150610e0882610dc7565b602082019050919050565b60006020820190508181036000830152610e2c81610df0565b9050919050565b6000606082019050610e486000830186610933565b610e556020830185610967565b610e626040830184610933565b949350505050565b7f4f776e61626c653a206e6577206f776e657220697320746865207a65726f206160008201527f6464726573730000000000000000000000000000000000000000000000000000602082015250565b6000610ec6602683610b22565b9150610ed182610e6a565b604082019050919050565b60006020820190508181036000830152610ef581610eb9565b9050919050565b7f4f776e61626c653a2063616c6c6572206973206e6f7420746865206f776e6572600082015250565b6000610f32602083610b22565b9150610f3d82610efc565b602082019050919050565b60006020820190508181036000830152610f6181610f25565b9050919050565b7f50726f6f664f66576f726b3a20646966666963756c7479203e20300000000000600082015250565b6000610f9e601b83610b22565b9150610fa982610f68565b602082019050919050565b60006020820190508181036000830152610fcd81610f91565b9050919050565b7f5265656e7472616e637947756172643a207265656e7472616e742063616c6c00600082015250565b600061100a601f83610b22565b915061101582610fd4565b602082019050919050565b6000602082019050818103600083015261103981610ffd565b9050919050565b7f416464726573733a20696e73756666696369656e742062616c616e6365000000600082015250565b6000611076601d83610b22565b915061108182611040565b602082019050919050565b600060208201905081810360008301526110a581611069565b9050919050565b600081905092915050565b50565b60006110c76000836110ac565b91506110d2826110b7565b600082019050919050565b60006110e8826110ba565b9150819050919050565b7f416464726573733a20756e61626c6520746f2073656e642076616c75652c207260008201527f6563697069656e74206d61792068617665207265766572746564000000000000602082015250565b600061114e603a83610b22565b9150611159826110f2565b604082019050919050565b6000602082019050818103600083015261117d81611141565b905091905056fea26469706673582212203e7b2ee6dc9598fa4e3ea565ba5353d17f8036619d57fd381360913e5a99124864736f6c63430008140033",
  "linkReferences": {},
  "deployedLinkReferences": {}
}